{
  "contractName": "curd",
  "abi": [
    {
      "inputs": [
        {
          "internalType": "uint256",
          "name": "_id",
          "type": "uint256"
        },
        {
          "internalType": "string",
          "name": "_name",
          "type": "string"
        }
      ],
      "name": "registerUser",
      "outputs": [
        {
          "internalType": "bool",
          "name": "",
          "type": "bool"
        }
      ],
      "stateMutability": "payable",
      "type": "function"
    }
  ],
  "bytecode": "0x608060405234801561001057600080fd5b50610235806100206000396000f3fe60806040526004361061001e5760003560e01c80631c57333e14610023575b600080fd5b6100e66004803603604081101561003957600080fd5b81019080803590602001909291908035906020019064010000000081111561006057600080fd5b82018360208201111561007257600080fd5b8035906020019184600183028401116401000000008311171561009457600080fd5b91908080601f016020809104026020016040519081016040528093929190818152602001838380828437600081840152601f19601f820116905080830192505050505050509192919290505050610100565b604051808215151515815260200191505060405180910390f35b60006706f05b59d3b20000341015610180576040517f08c379a000000000000000000000000000000000000000000000000000000000815260040180806020018281038252601a8152602001807f596f7520446f6e2774204861766520456e6f7567682046756e6400000000000081525060200191505060405180910390fd5b346000803373ffffffffffffffffffffffffffffffffffffffff1673ffffffffffffffffffffffffffffffffffffffff1681526020019081526020016000208190555060405180606001604052808481526020018381526020013373ffffffffffffffffffffffffffffffffffffffff1681525050600190509291505056fea26469706673582212209c3e92d0bbb968718f437ad8fa768918eb50ea890004f537454486a33fb6c47564736f6c63430006030033",
  "source": "pragma solidity 0.6.3;\r\n\r\ncontract curd{\r\n    struct userData{\r\n        uint id;\r\n        string name;\r\n        address Address;\r\n    }\r\n    mapping(address => uint) paymentDetails;\r\n\r\n\r\n    //user should have 0.5 ether to open account on todolist\r\n    function registerUser(uint _id, string memory _name) public payable returns(bool){\r\n        require(msg.value >= 0.5 ether,\"You Don't Have Enough Fund\");\r\n        paymentDetails[msg.sender] = msg.value;\r\n        userData(_id,_name,msg.sender);\r\n        return true;\r\n    } \r\n}",
  "sourcePath": "E:\\Blockchain-Development\\curd-dapp\\contracts\\curd.sol",
  "compiler": {
    "name": "solc",
    "version": "0.6.3+commit.8dda9521.Emscripten.clang"
  },
  "schemaVersion": "3.0.23",
  "updatedAt": "2020-03-10T18:38:13.312Z",
  "devdoc": {
    "methods": {}
  },
  "userdoc": {
    "methods": {}
  }
}