{
  "contractName": "todolist",
  "abi": [
    {
      "constant": true,
      "inputs": [
        {
          "name": "",
          "type": "uint256"
        }
      ],
      "name": "task",
      "outputs": [
        {
          "name": "value",
          "type": "string"
        }
      ],
      "payable": false,
      "stateMutability": "view",
      "type": "function"
    },
    {
      "constant": true,
      "inputs": [
        {
          "name": "",
          "type": "address"
        }
      ],
      "name": "paymentDetails",
      "outputs": [
        {
          "name": "",
          "type": "uint256"
        }
      ],
      "payable": false,
      "stateMutability": "view",
      "type": "function"
    },
    {
      "constant": true,
      "inputs": [
        {
          "name": "",
          "type": "uint256"
        }
      ],
      "name": "usersData",
      "outputs": [
        {
          "name": "id",
          "type": "uint256"
        },
        {
          "name": "name",
          "type": "string"
        },
        {
          "name": "Address",
          "type": "address"
        }
      ],
      "payable": false,
      "stateMutability": "view",
      "type": "function"
    },
    {
      "constant": false,
      "inputs": [
        {
          "name": "_id",
          "type": "uint256"
        },
        {
          "name": "_name",
          "type": "string"
        }
      ],
      "name": "registerUser",
      "outputs": [
        {
          "name": "",
          "type": "bool"
        }
      ],
      "payable": true,
      "stateMutability": "payable",
      "type": "function"
    },
    {
      "constant": false,
      "inputs": [
        {
          "name": "_data",
          "type": "string"
        }
      ],
      "name": "create",
      "outputs": [
        {
          "name": "",
          "type": "bool"
        }
      ],
      "payable": false,
      "stateMutability": "nonpayable",
      "type": "function"
    },
    {
      "constant": true,
      "inputs": [],
      "name": "read",
      "outputs": [
        {
          "name": "",
          "type": "string[]"
        }
      ],
      "payable": false,
      "stateMutability": "view",
      "type": "function"
    },
    {
      "constant": false,
      "inputs": [
        {
          "name": "_index",
          "type": "uint256"
        }
      ],
      "name": "deleteItem",
      "outputs": [
        {
          "name": "",
          "type": "bool"
        }
      ],
      "payable": false,
      "stateMutability": "nonpayable",
      "type": "function"
    }
  ],
  "bytecode": "0x608060405234801561001057600080fd5b50611117806100206000396000f3fe6080604052600436106100705760003560e01c8063654fc8331161004e578063654fc8331461010d57806388c496371461014a5780638905c27414610187578063b6a46b3b146101c657610070565b806317751a21146100755780631c57333e146100b257806357de26a4146100e2575b600080fd5b34801561008157600080fd5b5061009c60048036036100979190810190610c09565b610203565b6040516100a99190610e91565b60405180910390f35b6100cc60048036036100c79190810190610c32565b6102c2565b6040516100d99190610e76565b60405180910390f35b3480156100ee57600080fd5b506100f761042c565b6040516101049190610e54565b60405180910390f35b34801561011957600080fd5b50610134600480360361012f9190810190610c09565b6105e8565b6040516101419190610e76565b60405180910390f35b34801561015657600080fd5b50610171600480360361016c9190810190610b9f565b61075e565b60405161017e9190610ef3565b60405180910390f35b34801561019357600080fd5b506101ae60048036036101a99190810190610c09565b610776565b6040516101bd93929190610f0e565b60405180910390f35b3480156101d257600080fd5b506101ed60048036036101e89190810190610bc8565b610865565b6040516101fa9190610e76565b60405180910390f35b6000818154811061021057fe5b90600052602060002001600091509050806000018054600181600116156101000203166002900480601f0160208091040260200160405190810160405280929190818152602001828054600181600116156101000203166002900480156102b85780601f1061028d576101008083540402835291602001916102b8565b820191906000526020600020905b81548152906001019060200180831161029b57829003601f168201915b5050505050905081565b60006706f05b59d3b2000034101561030f576040517f08c379a000000000000000000000000000000000000000000000000000000000815260040161030690610ed3565b60405180910390fd5b34600260003373ffffffffffffffffffffffffffffffffffffffff1673ffffffffffffffffffffffffffffffffffffffff16815260200190815260200160002081905550600160405180606001604052808581526020018481526020013373ffffffffffffffffffffffffffffffffffffffff16815250908060018154018082558091505090600182039060005260206000209060030201600090919290919091506000820151816000015560208201518160010190805190602001906103d7929190610952565b5060408201518160020160006101000a81548173ffffffffffffffffffffffffffffffffffffffff021916908373ffffffffffffffffffffffffffffffffffffffff1602179055505050506001905092915050565b60606706f05b59d3b20000600260003373ffffffffffffffffffffffffffffffffffffffff1673ffffffffffffffffffffffffffffffffffffffff1681526020019081526020016000205410156104b8576040517f08c379a00000000000000000000000000000000000000000000000000000000081526004016104af90610eb3565b60405180910390fd5b60606000805490506040519080825280602002602001820160405280156104f357816020015b60608152602001906001900390816104de5790505b50905060008090505b6000805490508110156105e0576000818154811061051657fe5b906000526020600020016000018054600181600116156101000203166002900480601f0160208091040260200160405190810160405280929190818152602001828054600181600116156101000203166002900480156105b75780601f1061058c576101008083540402835291602001916105b7565b820191906000526020600020905b81548152906001019060200180831161059a57829003601f168201915b50505050508282815181106105c857fe5b602002602001018190525080806001019150506104fc565b508091505090565b60006706f05b59d3b20000600260003373ffffffffffffffffffffffffffffffffffffffff1673ffffffffffffffffffffffffffffffffffffffff168152602001908152602001600020541015610674576040517f08c379a000000000000000000000000000000000000000000000000000000000815260040161066b90610eb3565b60405180910390fd5b60008054905082106106895760009050610759565b60008290505b60016000805490500381101561070857600060018201815481106106af57fe5b90600052602060002001600082815481106106c657fe5b90600052602060002001600082018160000190805460018160011615610100020316600290046106f79291906109d2565b50905050808060010191505061068f565b5060006001600080549050038154811061071e57fe5b90600052602060002001600080820160006107399190610a59565b505060016000818180549050039150816107539190610aa1565b50600190505b919050565b60026020528060005260406000206000915090505481565b6001818154811061078357fe5b9060005260206000209060030201600091509050806000015490806001018054600181600116156101000203166002900480601f0160208091040260200160405190810160405280929190818152602001828054600181600116156101000203166002900480156108355780601f1061080a57610100808354040283529160200191610835565b820191906000526020600020905b81548152906001019060200180831161081857829003601f168201915b5050505050908060020160009054906101000a900473ffffffffffffffffffffffffffffffffffffffff16905083565b60006706f05b59d3b20000600260003373ffffffffffffffffffffffffffffffffffffffff1673ffffffffffffffffffffffffffffffffffffffff1681526020019081526020016000205410156108f1576040517f08c379a00000000000000000000000000000000000000000000000000000000081526004016108e890610eb3565b60405180910390fd5b60006040518060200160405280848152509080600181540180825580915050906001820390600052602060002001600090919290919091506000820151816000019080519060200190610945929190610952565b5050505060019050919050565b828054600181600116156101000203166002900490600052602060002090601f016020900481019282601f1061099357805160ff19168380011785556109c1565b828001600101855582156109c1579182015b828111156109c05782518255916020019190600101906109a5565b5b5090506109ce9190610acd565b5090565b828054600181600116156101000203166002900490600052602060002090601f016020900481019282601f10610a0b5780548555610a48565b82800160010185558215610a4857600052602060002091601f016020900482015b82811115610a47578254825591600101919060010190610a2c565b5b509050610a559190610acd565b5090565b50805460018160011615610100020316600290046000825580601f10610a7f5750610a9e565b601f016020900490600052602060002090810190610a9d9190610acd565b5b50565b815481835581811115610ac857818360005260206000209182019101610ac79190610af2565b5b505050565b610aef91905b80821115610aeb576000816000905550600101610ad3565b5090565b90565b610b1e91905b80821115610b1a5760008082016000610b119190610a59565b50600101610af8565b5090565b90565b600081359050610b30816110a6565b92915050565b600082601f830112610b4757600080fd5b8135610b5a610b5582610f79565b610f4c565b91508082526020830160208301858383011115610b7657600080fd5b610b81838284611053565b50505092915050565b600081359050610b99816110bd565b92915050565b600060208284031215610bb157600080fd5b6000610bbf84828501610b21565b91505092915050565b600060208284031215610bda57600080fd5b600082013567ffffffffffffffff811115610bf457600080fd5b610c0084828501610b36565b91505092915050565b600060208284031215610c1b57600080fd5b6000610c2984828501610b8a565b91505092915050565b60008060408385031215610c4557600080fd5b6000610c5385828601610b8a565b925050602083013567ffffffffffffffff811115610c7057600080fd5b610c7c85828601610b36565b9150509250929050565b6000610c928383610d2d565b905092915050565b610ca38161100b565b82525050565b6000610cb482610fb5565b610cbe8185610fd8565b935083602082028501610cd085610fa5565b8060005b85811015610d0c5784840389528151610ced8582610c86565b9450610cf883610fcb565b925060208a01995050600181019050610cd4565b50829750879550505050505092915050565b610d278161101d565b82525050565b6000610d3882610fc0565b610d428185610fe9565b9350610d52818560208601611062565b610d5b81611095565b840191505092915050565b6000610d7182610fc0565b610d7b8185610ffa565b9350610d8b818560208601611062565b610d9481611095565b840191505092915050565b6000610dac601783610ffa565b91507f726567697374657220796f757273656c662066697273740000000000000000006000830152602082019050919050565b6000610dec602483610ffa565b91507f596f752073686f756c642068617665206d696e696d756e206f6620302e35206560008301527f74686572000000000000000000000000000000000000000000000000000000006020830152604082019050919050565b610e4e81611049565b82525050565b60006020820190508181036000830152610e6e8184610ca9565b905092915050565b6000602082019050610e8b6000830184610d1e565b92915050565b60006020820190508181036000830152610eab8184610d66565b905092915050565b60006020820190508181036000830152610ecc81610d9f565b9050919050565b60006020820190508181036000830152610eec81610ddf565b9050919050565b6000602082019050610f086000830184610e45565b92915050565b6000606082019050610f236000830186610e45565b8181036020830152610f358185610d66565b9050610f446040830184610c9a565b949350505050565b6000604051905081810181811067ffffffffffffffff82111715610f6f57600080fd5b8060405250919050565b600067ffffffffffffffff821115610f9057600080fd5b601f19601f8301169050602081019050919050565b6000819050602082019050919050565b600081519050919050565b600081519050919050565b6000602082019050919050565b600082825260208201905092915050565b600082825260208201905092915050565b600082825260208201905092915050565b600061101682611029565b9050919050565b60008115159050919050565b600073ffffffffffffffffffffffffffffffffffffffff82169050919050565b6000819050919050565b82818337600083830152505050565b60005b83811015611080578082015181840152602081019050611065565b8381111561108f576000848401525b50505050565b6000601f19601f8301169050919050565b6110af8161100b565b81146110ba57600080fd5b50565b6110c681611049565b81146110d157600080fd5b5056fea365627a7a723058207bbf50437fb0bd2223ddff3d7f889bac68cfa79ecac5f45b506ce7cb1f62994b6c6578706572696d656e74616cf564736f6c63430005090040",
  "source": "pragma solidity 0.5.9;\r\npragma experimental ABIEncoderV2;\r\n\r\ncontract todolist{\r\n    struct userData{\r\n        uint id;\r\n        string name;\r\n        address Address;\r\n    }\r\n    struct tasks{\r\n        string value;\r\n    }\r\n    tasks[] public  task;\r\n    userData[] public usersData;\r\n\r\n\r\n    mapping(address => uint) public paymentDetails;\r\n    //mapping(address => string[]) data;\r\n\r\n\r\n    //user should have 0.5 ether to open account on todolist\r\n    function registerUser(uint _id, string memory _name) public payable returns(bool){\r\n        require(msg.value >= 0.5 ether,\"You should have minimun of 0.5 ether\");\r\n        paymentDetails[msg.sender] = msg.value;\r\n        usersData.push(userData(_id,_name,msg.sender));\r\n        return true;\r\n    }\r\n\r\n    function create(string memory _data) public returns(bool){\r\n        require(paymentDetails[msg.sender] >= 0.5 ether,\"register yourself first\");\r\n        task.push(tasks(_data));\r\n        return true;\r\n    }\r\n\r\n    function read() public view returns(string[] memory){\r\n        require(paymentDetails[msg.sender] >= 0.5 ether,\"register yourself first\");\r\n\r\n        string[] memory item = new string[](task.length);\r\n        for(uint i=0; i<task.length; i++){\r\n            item[i] = task[i].value;\r\n        }\r\n        return item;\r\n    }\r\n\r\n    function deleteItem(uint _index) public returns(bool){\r\n        require(paymentDetails[msg.sender] >= 0.5 ether,\"register yourself first\");\r\n        if(_index >= task.length) return false;\r\n\r\n        for(uint i=_index; i<task.length -1; i++){\r\n            task[i] = task[i+1];\r\n        }\r\n        delete task[task.length-1];\r\n        task.length -= 1;\r\n        return true;\r\n\r\n    }\r\n\r\n\r\n\r\n}",
  "sourcePath": "E:\\Blockchain-Development\\curd-dapp\\contracts\\todolist.sol",
  "compiler": {
    "name": "solc",
    "version": "0.5.9+commit.e560f70d.Emscripten.clang"
  },
  "schemaVersion": "3.0.23",
  "updatedAt": "2020-03-16T11:20:10.446Z",
  "devdoc": {
    "methods": {}
  },
  "userdoc": {
    "methods": {}
  }
}