{
  "contractName": "todolist",
  "abi": [
    {
      "constant": true,
      "inputs": [
        {
          "name": "",
          "type": "uint256"
        }
      ],
      "name": "task",
      "outputs": [
        {
          "name": "value",
          "type": "string"
        }
      ],
      "payable": false,
      "stateMutability": "view",
      "type": "function"
    },
    {
      "constant": true,
      "inputs": [
        {
          "name": "",
          "type": "address"
        }
      ],
      "name": "paymentDetails",
      "outputs": [
        {
          "name": "",
          "type": "uint256"
        }
      ],
      "payable": false,
      "stateMutability": "view",
      "type": "function"
    },
    {
      "constant": true,
      "inputs": [
        {
          "name": "",
          "type": "address"
        }
      ],
      "name": "finalData",
      "outputs": [
        {
          "name": "id",
          "type": "uint256"
        },
        {
          "name": "name",
          "type": "string"
        },
        {
          "name": "Address",
          "type": "address"
        }
      ],
      "payable": false,
      "stateMutability": "view",
      "type": "function"
    },
    {
      "anonymous": false,
      "inputs": [
        {
          "indexed": false,
          "name": "",
          "type": "uint256"
        },
        {
          "indexed": false,
          "name": "",
          "type": "string"
        },
        {
          "indexed": false,
          "name": "",
          "type": "address"
        }
      ],
      "name": "user",
      "type": "event"
    },
    {
      "anonymous": false,
      "inputs": [
        {
          "indexed": false,
          "name": "",
          "type": "uint256"
        },
        {
          "indexed": false,
          "name": "",
          "type": "string"
        },
        {
          "indexed": false,
          "name": "",
          "type": "address"
        },
        {
          "indexed": false,
          "name": "",
          "type": "string"
        }
      ],
      "name": "addedTask",
      "type": "event"
    },
    {
      "constant": false,
      "inputs": [
        {
          "name": "_name",
          "type": "string"
        }
      ],
      "name": "registerUser",
      "outputs": [
        {
          "name": "",
          "type": "bool"
        }
      ],
      "payable": true,
      "stateMutability": "payable",
      "type": "function"
    },
    {
      "constant": false,
      "inputs": [
        {
          "name": "_data",
          "type": "string"
        }
      ],
      "name": "create",
      "outputs": [
        {
          "name": "",
          "type": "bool"
        }
      ],
      "payable": false,
      "stateMutability": "nonpayable",
      "type": "function"
    },
    {
      "constant": false,
      "inputs": [
        {
          "name": "_index",
          "type": "uint256"
        }
      ],
      "name": "deleteItem",
      "outputs": [
        {
          "name": "",
          "type": "bool"
        }
      ],
      "payable": false,
      "stateMutability": "nonpayable",
      "type": "function"
    }
  ],
  "bytecode": "0x608060405234801561001057600080fd5b50611180806100206000396000f3fe6080604052600436106100555760003560e01c806317751a211461005a578063654fc83314610097578063704f1b94146100d457806388c4963714610104578063b6a46b3b14610141578063e6379d7b1461017e575b600080fd5b34801561006657600080fd5b50610081600480360361007c9190810190610c36565b6101bd565b60405161008e9190610e5d565b60405180910390f35b3480156100a357600080fd5b506100be60048036036100b99190810190610c36565b61027c565b6040516100cb9190610e42565b60405180910390f35b6100ee60048036036100e99190810190610bf5565b6103ed565b6040516100fb9190610e42565b60405180910390f35b34801561011057600080fd5b5061012b60048036036101269190810190610bcc565b6105f6565b6040516101389190610ebf565b60405180910390f35b34801561014d57600080fd5b5061016860048036036101639190810190610bf5565b61060e565b6040516101759190610e42565b60405180910390f35b34801561018a57600080fd5b506101a560048036036101a09190810190610bcc565b61081d565b6040516101b493929190610f18565b60405180910390f35b600181815481106101ca57fe5b90600052602060002001600091509050806000018054600181600116156101000203166002900480601f0160208091040260200160405190810160405280929190818152602001828054600181600116156101000203166002900480156102725780601f1061024757610100808354040283529160200191610272565b820191906000526020600020905b81548152906001019060200180831161025557829003601f168201915b5050505050905081565b60006706f05b59d3b20000600360003373ffffffffffffffffffffffffffffffffffffffff1673ffffffffffffffffffffffffffffffffffffffff168152602001908152602001600020541015610308576040517f08c379a00000000000000000000000000000000000000000000000000000000081526004016102ff90610e7f565b60405180910390fd5b600180549050821061031d57600090506103e8565b60008290505b600180805490500381101561039a5760018082018154811061034157fe5b906000526020600020016001828154811061035857fe5b90600052602060002001600082018160000190805460018160011615610100020316600290046103899291906108ff565b509050508080600101915050610323565b50600180808054905003815481106103ae57fe5b90600052602060002001600080820160006103c99190610986565b5050600180818180549050039150816103e291906109ce565b50600190505b919050565b60006706f05b59d3b2000034101561043a576040517f08c379a000000000000000000000000000000000000000000000000000000000815260040161043190610e9f565b60405180910390fd5b600080815480929190600101919050555034600360003373ffffffffffffffffffffffffffffffffffffffff1673ffffffffffffffffffffffffffffffffffffffff16815260200190815260200160002081905550600054600260003373ffffffffffffffffffffffffffffffffffffffff1673ffffffffffffffffffffffffffffffffffffffff1681526020019081526020016000206000018190555081600260003373ffffffffffffffffffffffffffffffffffffffff1673ffffffffffffffffffffffffffffffffffffffff168152602001908152602001600020600101908051906020019061052e9291906109fa565b5033600260003373ffffffffffffffffffffffffffffffffffffffff1673ffffffffffffffffffffffffffffffffffffffff16815260200190815260200160002060020160006101000a81548173ffffffffffffffffffffffffffffffffffffffff021916908373ffffffffffffffffffffffffffffffffffffffff1602179055507fd8fd19d9aaa6a22f3a612d5dcf84b531af2b3019b54be27b9530dca9b9d7de8560005483336040516105e593929190610eda565b60405180910390a160019050919050565b60036020528060005260406000206000915090505481565b60006706f05b59d3b20000600360003373ffffffffffffffffffffffffffffffffffffffff1673ffffffffffffffffffffffffffffffffffffffff16815260200190815260200160002054101561069a576040517f08c379a000000000000000000000000000000000000000000000000000000000815260040161069190610e7f565b60405180910390fd5b600160405180602001604052808481525090806001815401808255809150509060018203906000526020600020016000909192909190915060008201518160000190805190602001906106ee929190610a7a565b505050507f50050ede172ac577d8025e358f4ca4d4aa0e0b1d39e22f105b0504f28610e084600260003373ffffffffffffffffffffffffffffffffffffffff1673ffffffffffffffffffffffffffffffffffffffff16815260200190815260200160002060000154600260003373ffffffffffffffffffffffffffffffffffffffff1673ffffffffffffffffffffffffffffffffffffffff168152602001908152602001600020600101600260003373ffffffffffffffffffffffffffffffffffffffff1673ffffffffffffffffffffffffffffffffffffffff16815260200190815260200160002060020160009054906101000a900473ffffffffffffffffffffffffffffffffffffffff168560405161080c9493929190610f56565b60405180910390a160019050919050565b6002602052806000526040600020600091509050806000015490806001018054600181600116156101000203166002900480601f0160208091040260200160405190810160405280929190818152602001828054600181600116156101000203166002900480156108cf5780601f106108a4576101008083540402835291602001916108cf565b820191906000526020600020905b8154815290600101906020018083116108b257829003601f168201915b5050505050908060020160009054906101000a900473ffffffffffffffffffffffffffffffffffffffff16905083565b828054600181600116156101000203166002900490600052602060002090601f016020900481019282601f106109385780548555610975565b8280016001018555821561097557600052602060002091601f016020900482015b82811115610974578254825591600101919060010190610959565b5b5090506109829190610afa565b5090565b50805460018160011615610100020316600290046000825580601f106109ac57506109cb565b601f0160209004906000526020600020908101906109ca9190610afa565b5b50565b8154818355818111156109f5578183600052602060002091820191016109f49190610b1f565b5b505050565b828054600181600116156101000203166002900490600052602060002090601f016020900481019282601f10610a3b57805160ff1916838001178555610a69565b82800160010185558215610a69579182015b82811115610a68578251825591602001919060010190610a4d565b5b509050610a769190610afa565b5090565b828054600181600116156101000203166002900490600052602060002090601f016020900481019282601f10610abb57805160ff1916838001178555610ae9565b82800160010185558215610ae9579182015b82811115610ae8578251825591602001919060010190610acd565b5b509050610af69190610afa565b5090565b610b1c91905b80821115610b18576000816000905550600101610b00565b5090565b90565b610b4b91905b80821115610b475760008082016000610b3e9190610986565b50600101610b25565b5090565b90565b600081359050610b5d8161110f565b92915050565b600082601f830112610b7457600080fd5b8135610b87610b8282610fd6565b610fa9565b91508082526020830160208301858383011115610ba357600080fd5b610bae8382846110bc565b50505092915050565b600081359050610bc681611126565b92915050565b600060208284031215610bde57600080fd5b6000610bec84828501610b4e565b91505092915050565b600060208284031215610c0757600080fd5b600082013567ffffffffffffffff811115610c2157600080fd5b610c2d84828501610b63565b91505092915050565b600060208284031215610c4857600080fd5b6000610c5684828501610bb7565b91505092915050565b610c6881611086565b82525050565b610c778161103e565b82525050565b610c8681611050565b82525050565b6000610c9782611022565b610ca1818561102d565b9350610cb18185602086016110cb565b610cba816110fe565b840191505092915050565b6000610cd082611017565b610cda818561102d565b9350610cea8185602086016110cb565b610cf3816110fe565b840191505092915050565b600081546001811660008114610d1b5760018114610d4157610d85565b607f6002830416610d2c818761102d565b955060ff198316865260208601935050610d85565b60028204610d4f818761102d565b9550610d5a85611002565b60005b82811015610d7c57815481890152600182019150602081019050610d5d565b80880195505050505b505092915050565b6000610d9a60178361102d565b91507f726567697374657220796f757273656c662066697273740000000000000000006000830152602082019050919050565b6000610dda60248361102d565b91507f596f752073686f756c642068617665206d696e696d756e206f6620302e35206560008301527f74686572000000000000000000000000000000000000000000000000000000006020830152604082019050919050565b610e3c8161107c565b82525050565b6000602082019050610e576000830184610c7d565b92915050565b60006020820190508181036000830152610e778184610cc5565b905092915050565b60006020820190508181036000830152610e9881610d8d565b9050919050565b60006020820190508181036000830152610eb881610dcd565b9050919050565b6000602082019050610ed46000830184610e33565b92915050565b6000606082019050610eef6000830186610e33565b8181036020830152610f018185610c8c565b9050610f106040830184610c5f565b949350505050565b6000606082019050610f2d6000830186610e33565b8181036020830152610f3f8185610cc5565b9050610f4e6040830184610c6e565b949350505050565b6000608082019050610f6b6000830187610e33565b8181036020830152610f7d8186610cfe565b9050610f8c6040830185610c6e565b8181036060830152610f9e8184610c8c565b905095945050505050565b6000604051905081810181811067ffffffffffffffff82111715610fcc57600080fd5b8060405250919050565b600067ffffffffffffffff821115610fed57600080fd5b601f19601f8301169050602081019050919050565b60008190508160005260206000209050919050565b600081519050919050565b600081519050919050565b600082825260208201905092915050565b60006110498261105c565b9050919050565b60008115159050919050565b600073ffffffffffffffffffffffffffffffffffffffff82169050919050565b6000819050919050565b600061109182611098565b9050919050565b60006110a3826110aa565b9050919050565b60006110b58261105c565b9050919050565b82818337600083830152505050565b60005b838110156110e95780820151818401526020810190506110ce565b838111156110f8576000848401525b50505050565b6000601f19601f8301169050919050565b6111188161103e565b811461112357600080fd5b50565b61112f8161107c565b811461113a57600080fd5b5056fea365627a7a723058200e523103762a644f0a622ae7b0e609dd5f0bc68c9d058c418584065e0288c8986c6578706572696d656e74616cf564736f6c63430005090040",
  "source": "pragma solidity 0.5.9;\r\npragma experimental ABIEncoderV2;\r\n\r\ncontract todolist{\r\n    uint ranId;\r\n    struct userData{\r\n        uint id;\r\n        string name;\r\n        address Address;\r\n    }\r\n    struct tasks{\r\n        string value;\r\n    }\r\n    tasks[] public  task;\r\n    //userData[] public usersData;\r\n\r\n    mapping(address => userData) public finalData;\r\n    mapping(address => uint) public paymentDetails;\r\n    \r\n    event user(uint,string,address);\r\n    event addedTask(uint,string,address,string);\r\n\r\n    //user should have 0.5 ether to open account on todolist\r\n    function registerUser(string memory _name) public payable returns(bool){\r\n        require(msg.value >= 0.5 ether,\"You should have minimun of 0.5 ether\");\r\n        ranId++;\r\n        paymentDetails[msg.sender] = msg.value;\r\n        //usersData.push(userData(ranId,_name,msg.sender));\r\n        finalData[msg.sender].id = ranId;\r\n        finalData[msg.sender].name = _name;\r\n        finalData[msg.sender].Address = msg.sender; \r\n        emit user(ranId,_name,msg.sender);\r\n        return true;\r\n    }\r\n\r\n    function create(string memory _data) public returns(bool){\r\n        require(paymentDetails[msg.sender] >= 0.5 ether,\"register yourself first\");\r\n        task.push(tasks(_data));\r\n        emit addedTask(finalData[msg.sender].id,finalData[msg.sender].name,finalData[msg.sender].Address,_data);\r\n        return true;\r\n    }\r\n\r\n    // function read() public view returns(string[] memory){\r\n    //     require(paymentDetails[msg.sender] >= 0.5 ether,\"register yourself first\");\r\n\r\n    //     string[] memory item = new string[](task.length);\r\n    //     for(uint i=0; i<task.length; i++){\r\n    //         item[i] = task[i].value;\r\n    //     }\r\n    //     return item;\r\n    // }\r\n\r\n    function deleteItem(uint _index) public returns(bool){\r\n        require(paymentDetails[msg.sender] >= 0.5 ether,\"register yourself first\");\r\n        if(_index >= task.length) return false;\r\n\r\n        for(uint i=_index; i<task.length -1; i++){\r\n            task[i] = task[i+1];\r\n        }\r\n        delete task[task.length-1];\r\n        task.length -= 1;\r\n        return true;\r\n\r\n    }\r\n\r\n\r\n\r\n}",
  "sourcePath": "E:\\Blockchain-Development\\curd-dapp\\contracts\\todolist.sol",
  "compiler": {
    "name": "solc",
    "version": "0.5.9+commit.e560f70d.Emscripten.clang"
  },
  "schemaVersion": "3.0.23",
  "updatedAt": "2020-03-16T12:58:44.410Z",
  "networkType": "ethereum",
  "devdoc": {
    "methods": {}
  },
  "userdoc": {
    "methods": {}
  }
}