{
  "contractName": "todolist",
  "abi": [
    {
      "constant": true,
      "inputs": [
        {
          "name": "",
          "type": "uint256"
        }
      ],
      "name": "task",
      "outputs": [
        {
          "name": "value",
          "type": "string"
        }
      ],
      "payable": false,
      "stateMutability": "view",
      "type": "function"
    },
    {
      "constant": true,
      "inputs": [],
      "name": "length",
      "outputs": [
        {
          "name": "",
          "type": "uint256"
        }
      ],
      "payable": false,
      "stateMutability": "view",
      "type": "function"
    },
    {
      "constant": true,
      "inputs": [
        {
          "name": "",
          "type": "address"
        }
      ],
      "name": "paymentDetails",
      "outputs": [
        {
          "name": "",
          "type": "uint256"
        }
      ],
      "payable": false,
      "stateMutability": "view",
      "type": "function"
    },
    {
      "constant": true,
      "inputs": [
        {
          "name": "",
          "type": "address"
        }
      ],
      "name": "finalData",
      "outputs": [
        {
          "name": "id",
          "type": "uint256"
        },
        {
          "name": "name",
          "type": "string"
        },
        {
          "name": "Address",
          "type": "address"
        }
      ],
      "payable": false,
      "stateMutability": "view",
      "type": "function"
    },
    {
      "anonymous": false,
      "inputs": [
        {
          "indexed": false,
          "name": "",
          "type": "uint256"
        },
        {
          "indexed": false,
          "name": "",
          "type": "string"
        },
        {
          "indexed": false,
          "name": "",
          "type": "address"
        }
      ],
      "name": "user",
      "type": "event"
    },
    {
      "anonymous": false,
      "inputs": [
        {
          "indexed": false,
          "name": "",
          "type": "uint256"
        },
        {
          "indexed": false,
          "name": "",
          "type": "string"
        },
        {
          "indexed": false,
          "name": "",
          "type": "address"
        },
        {
          "indexed": false,
          "name": "",
          "type": "string"
        }
      ],
      "name": "addedTask",
      "type": "event"
    },
    {
      "constant": false,
      "inputs": [
        {
          "name": "_name",
          "type": "string"
        }
      ],
      "name": "registerUser",
      "outputs": [
        {
          "name": "",
          "type": "bool"
        }
      ],
      "payable": true,
      "stateMutability": "payable",
      "type": "function"
    },
    {
      "constant": false,
      "inputs": [
        {
          "name": "_data",
          "type": "string"
        }
      ],
      "name": "create",
      "outputs": [
        {
          "name": "",
          "type": "bool"
        }
      ],
      "payable": false,
      "stateMutability": "nonpayable",
      "type": "function"
    },
    {
      "constant": true,
      "inputs": [],
      "name": "read",
      "outputs": [
        {
          "name": "",
          "type": "string[]"
        }
      ],
      "payable": false,
      "stateMutability": "view",
      "type": "function"
    },
    {
      "constant": false,
      "inputs": [
        {
          "name": "_index",
          "type": "uint256"
        }
      ],
      "name": "deleteItem",
      "outputs": [
        {
          "name": "",
          "type": "bool"
        }
      ],
      "payable": false,
      "stateMutability": "nonpayable",
      "type": "function"
    }
  ],
  "bytecode": "0x608060405234801561001057600080fd5b506114f8806100206000396000f3fe60806040526004361061007b5760003560e01c8063704f1b941161004e578063704f1b941461015057806388c4963714610180578063b6a46b3b146101bd578063e6379d7b146101fa5761007b565b806317751a21146100805780631f7b6d32146100bd57806357de26a4146100e8578063654fc83314610113575b600080fd5b34801561008c57600080fd5b506100a760048036036100a29190810190610e80565b610239565b6040516100b4919061118b565b60405180910390f35b3480156100c957600080fd5b506100d26102f8565b6040516100df91906111ed565b60405180910390f35b3480156100f457600080fd5b506100fd6102fe565b60405161010a919061114e565b60405180910390f35b34801561011f57600080fd5b5061013a60048036036101359190810190610e80565b6104ba565b6040516101479190611170565b60405180910390f35b61016a60048036036101659190810190610e3f565b61062b565b6040516101779190611170565b60405180910390f35b34801561018c57600080fd5b506101a760048036036101a29190810190610e16565b610834565b6040516101b491906111ed565b60405180910390f35b3480156101c957600080fd5b506101e460048036036101df9190810190610e3f565b61084c565b6040516101f19190611170565b60405180910390f35b34801561020657600080fd5b50610221600480360361021c9190810190610e16565b610a67565b60405161023093929190611246565b60405180910390f35b6001818154811061024657fe5b90600052602060002001600091509050806000018054600181600116156101000203166002900480601f0160208091040260200160405190810160405280929190818152602001828054600181600116156101000203166002900480156102ee5780601f106102c3576101008083540402835291602001916102ee565b820191906000526020600020905b8154815290600101906020018083116102d157829003601f168201915b5050505050905081565b60025481565b60606706f05b59d3b20000600460003373ffffffffffffffffffffffffffffffffffffffff1673ffffffffffffffffffffffffffffffffffffffff16815260200190815260200160002054101561038a576040517f08c379a0000000000000000000000000000000000000000000000000000000008152600401610381906111ad565b60405180910390fd5b60606001805490506040519080825280602002602001820160405280156103c557816020015b60608152602001906001900390816103b05790505b50905060008090505b6001805490508110156104b257600181815481106103e857fe5b906000526020600020016000018054600181600116156101000203166002900480601f0160208091040260200160405190810160405280929190818152602001828054600181600116156101000203166002900480156104895780601f1061045e57610100808354040283529160200191610489565b820191906000526020600020905b81548152906001019060200180831161046c57829003601f168201915b505050505082828151811061049a57fe5b602002602001018190525080806001019150506103ce565b508091505090565b60006706f05b59d3b20000600460003373ffffffffffffffffffffffffffffffffffffffff1673ffffffffffffffffffffffffffffffffffffffff168152602001908152602001600020541015610546576040517f08c379a000000000000000000000000000000000000000000000000000000000815260040161053d906111ad565b60405180910390fd5b600180549050821061055b5760009050610626565b60008290505b60018080549050038110156105d85760018082018154811061057f57fe5b906000526020600020016001828154811061059657fe5b90600052602060002001600082018160000190805460018160011615610100020316600290046105c7929190610b49565b509050508080600101915050610561565b50600180808054905003815481106105ec57fe5b90600052602060002001600080820160006106079190610bd0565b5050600180818180549050039150816106209190610c18565b50600190505b919050565b60006706f05b59d3b20000341015610678576040517f08c379a000000000000000000000000000000000000000000000000000000000815260040161066f906111cd565b60405180910390fd5b600080815480929190600101919050555034600460003373ffffffffffffffffffffffffffffffffffffffff1673ffffffffffffffffffffffffffffffffffffffff16815260200190815260200160002081905550600054600360003373ffffffffffffffffffffffffffffffffffffffff1673ffffffffffffffffffffffffffffffffffffffff1681526020019081526020016000206000018190555081600360003373ffffffffffffffffffffffffffffffffffffffff1673ffffffffffffffffffffffffffffffffffffffff168152602001908152602001600020600101908051906020019061076c929190610c44565b5033600360003373ffffffffffffffffffffffffffffffffffffffff1673ffffffffffffffffffffffffffffffffffffffff16815260200190815260200160002060020160006101000a81548173ffffffffffffffffffffffffffffffffffffffff021916908373ffffffffffffffffffffffffffffffffffffffff1602179055507fd8fd19d9aaa6a22f3a612d5dcf84b531af2b3019b54be27b9530dca9b9d7de85600054833360405161082393929190611208565b60405180910390a160019050919050565b60046020528060005260406000206000915090505481565b60006706f05b59d3b20000600460003373ffffffffffffffffffffffffffffffffffffffff1673ffffffffffffffffffffffffffffffffffffffff1681526020019081526020016000205410156108d8576040517f08c379a00000000000000000000000000000000000000000000000000000000081526004016108cf906111ad565b60405180910390fd5b6001604051806020016040528084815250908060018154018082558091505090600182039060005260206000200160009091929091909150600082015181600001908051906020019061092c929190610cc4565b505050506001805490506002819055507f50050ede172ac577d8025e358f4ca4d4aa0e0b1d39e22f105b0504f28610e084600360003373ffffffffffffffffffffffffffffffffffffffff1673ffffffffffffffffffffffffffffffffffffffff16815260200190815260200160002060000154600360003373ffffffffffffffffffffffffffffffffffffffff1673ffffffffffffffffffffffffffffffffffffffff168152602001908152602001600020600101600360003373ffffffffffffffffffffffffffffffffffffffff1673ffffffffffffffffffffffffffffffffffffffff16815260200190815260200160002060020160009054906101000a900473ffffffffffffffffffffffffffffffffffffffff1685604051610a569493929190611284565b60405180910390a160019050919050565b6003602052806000526040600020600091509050806000015490806001018054600181600116156101000203166002900480601f016020809104026020016040519081016040528092919081815260200182805460018160011615610100020316600290048015610b195780601f10610aee57610100808354040283529160200191610b19565b820191906000526020600020905b815481529060010190602001808311610afc57829003601f168201915b5050505050908060020160009054906101000a900473ffffffffffffffffffffffffffffffffffffffff16905083565b828054600181600116156101000203166002900490600052602060002090601f016020900481019282601f10610b825780548555610bbf565b82800160010185558215610bbf57600052602060002091601f016020900482015b82811115610bbe578254825591600101919060010190610ba3565b5b509050610bcc9190610d44565b5090565b50805460018160011615610100020316600290046000825580601f10610bf65750610c15565b601f016020900490600052602060002090810190610c149190610d44565b5b50565b815481835581811115610c3f57818360005260206000209182019101610c3e9190610d69565b5b505050565b828054600181600116156101000203166002900490600052602060002090601f016020900481019282601f10610c8557805160ff1916838001178555610cb3565b82800160010185558215610cb3579182015b82811115610cb2578251825591602001919060010190610c97565b5b509050610cc09190610d44565b5090565b828054600181600116156101000203166002900490600052602060002090601f016020900481019282601f10610d0557805160ff1916838001178555610d33565b82800160010185558215610d33579182015b82811115610d32578251825591602001919060010190610d17565b5b509050610d409190610d44565b5090565b610d6691905b80821115610d62576000816000905550600101610d4a565b5090565b90565b610d9591905b80821115610d915760008082016000610d889190610bd0565b50600101610d6f565b5090565b90565b600081359050610da781611487565b92915050565b600082601f830112610dbe57600080fd5b8135610dd1610dcc82611304565b6112d7565b91508082526020830160208301858383011115610ded57600080fd5b610df8838284611434565b50505092915050565b600081359050610e108161149e565b92915050565b600060208284031215610e2857600080fd5b6000610e3684828501610d98565b91505092915050565b600060208284031215610e5157600080fd5b600082013567ffffffffffffffff811115610e6b57600080fd5b610e7784828501610dad565b91505092915050565b600060208284031215610e9257600080fd5b6000610ea084828501610e01565b91505092915050565b6000610eb58383610f98565b905092915050565b610ec6816113fe565b82525050565b610ed5816113b6565b82525050565b6000610ee682611355565b610ef08185611383565b935083602082028501610f0285611330565b8060005b85811015610f3e5784840389528151610f1f8582610ea9565b9450610f2a83611376565b925060208a01995050600181019050610f06565b50829750879550505050505092915050565b610f59816113c8565b82525050565b6000610f6a8261136b565b610f7481856113a5565b9350610f84818560208601611443565b610f8d81611476565b840191505092915050565b6000610fa382611360565b610fad8185611394565b9350610fbd818560208601611443565b610fc681611476565b840191505092915050565b6000610fdc82611360565b610fe681856113a5565b9350610ff6818560208601611443565b610fff81611476565b840191505092915050565b600081546001811660008114611027576001811461104d57611091565b607f600283041661103881876113a5565b955060ff198316865260208601935050611091565b6002820461105b81876113a5565b955061106685611340565b60005b8281101561108857815481890152600182019150602081019050611069565b80880195505050505b505092915050565b60006110a66017836113a5565b91507f726567697374657220796f757273656c662066697273740000000000000000006000830152602082019050919050565b60006110e66024836113a5565b91507f596f752073686f756c642068617665206d696e696d756e206f6620302e35206560008301527f74686572000000000000000000000000000000000000000000000000000000006020830152604082019050919050565b611148816113f4565b82525050565b600060208201905081810360008301526111688184610edb565b905092915050565b60006020820190506111856000830184610f50565b92915050565b600060208201905081810360008301526111a58184610fd1565b905092915050565b600060208201905081810360008301526111c681611099565b9050919050565b600060208201905081810360008301526111e6816110d9565b9050919050565b6000602082019050611202600083018461113f565b92915050565b600060608201905061121d600083018661113f565b818103602083015261122f8185610f5f565b905061123e6040830184610ebd565b949350505050565b600060608201905061125b600083018661113f565b818103602083015261126d8185610fd1565b905061127c6040830184610ecc565b949350505050565b6000608082019050611299600083018761113f565b81810360208301526112ab818661100a565b90506112ba6040830185610ecc565b81810360608301526112cc8184610f5f565b905095945050505050565b6000604051905081810181811067ffffffffffffffff821117156112fa57600080fd5b8060405250919050565b600067ffffffffffffffff82111561131b57600080fd5b601f19601f8301169050602081019050919050565b6000819050602082019050919050565b60008190508160005260206000209050919050565b600081519050919050565b600081519050919050565b600081519050919050565b6000602082019050919050565b600082825260208201905092915050565b600082825260208201905092915050565b600082825260208201905092915050565b60006113c1826113d4565b9050919050565b60008115159050919050565b600073ffffffffffffffffffffffffffffffffffffffff82169050919050565b6000819050919050565b600061140982611410565b9050919050565b600061141b82611422565b9050919050565b600061142d826113d4565b9050919050565b82818337600083830152505050565b60005b83811015611461578082015181840152602081019050611446565b83811115611470576000848401525b50505050565b6000601f19601f8301169050919050565b611490816113b6565b811461149b57600080fd5b50565b6114a7816113f4565b81146114b257600080fd5b5056fea365627a7a72305820460eeff764bab60cba01673e357c9ca03dcbf9aaf7eaf60a26dfa2877d1c289e6c6578706572696d656e74616cf564736f6c63430005090040",
  "source": "pragma solidity 0.5.9;\r\npragma experimental ABIEncoderV2;\r\n\r\ncontract todolist{\r\n    uint ranId;\r\n    struct userData{\r\n        uint id;\r\n        string name;\r\n        address Address;\r\n    }\r\n    struct tasks{\r\n        string value;\r\n    }\r\n    tasks[] public task;\r\n    uint public length;\r\n\r\n    mapping(address => userData) public finalData;\r\n    mapping(address => uint) public paymentDetails;\r\n    \r\n    event user(uint,string,address);\r\n    event addedTask(uint,string,address,string);\r\n\r\n    //user should have 0.5 ether to open account on todolist\r\n    function registerUser(string memory _name) public payable returns(bool){\r\n        require(msg.value >= 0.5 ether,\"You should have minimun of 0.5 ether\");\r\n        ranId++;\r\n        paymentDetails[msg.sender] = msg.value;\r\n        finalData[msg.sender].id = ranId;\r\n        finalData[msg.sender].name = _name;\r\n        finalData[msg.sender].Address = msg.sender; \r\n        emit user(ranId,_name,msg.sender);\r\n        return true;\r\n    }\r\n\r\n    function create(string memory _data) public returns(bool){\r\n        require(paymentDetails[msg.sender] >= 0.5 ether,\"register yourself first\");\r\n        task.push(tasks(_data));\r\n        length = task.length;\r\n        emit addedTask(finalData[msg.sender].id,finalData[msg.sender].name,finalData[msg.sender].Address,_data);\r\n        return true;\r\n    }\r\n\r\n    function read() public view returns(string[] memory){\r\n        require(paymentDetails[msg.sender] >= 0.5 ether,\"register yourself first\");\r\n\r\n        string[] memory item = new string[](task.length);\r\n        for(uint i=0; i<task.length; i++){\r\n            item[i] = task[i].value;\r\n        }\r\n        return item;\r\n    }\r\n\r\n    function deleteItem(uint _index) public returns(bool){\r\n        require(paymentDetails[msg.sender] >= 0.5 ether,\"register yourself first\");\r\n        if(_index >= task.length) return false;\r\n\r\n        for(uint i=_index; i<task.length -1; i++){\r\n            task[i] = task[i+1];\r\n        }\r\n        delete task[task.length-1];\r\n        task.length -= 1;\r\n        return true;\r\n\r\n    }\r\n\r\n\r\n\r\n}",
  "sourcePath": "E:\\Blockchain-Development\\curd-dapp\\contracts\\todolist.sol",
  "compiler": {
    "name": "solc",
    "version": "0.5.9+commit.e560f70d.Emscripten.clang"
  },
  "schemaVersion": "3.0.23",
  "updatedAt": "2020-03-17T14:28:57.184Z",
  "networkType": "ethereum",
  "devdoc": {
    "methods": {}
  },
  "userdoc": {
    "methods": {}
  }
}