{
  "contractName": "todolist",
  "abi": [
    {
      "inputs": [
        {
          "internalType": "uint256",
          "name": "_id",
          "type": "uint256"
        },
        {
          "internalType": "string",
          "name": "_name",
          "type": "string"
        }
      ],
      "name": "registerUser",
      "outputs": [
        {
          "internalType": "bool",
          "name": "",
          "type": "bool"
        }
      ],
      "stateMutability": "payable",
      "type": "function"
    },
    {
      "inputs": [
        {
          "internalType": "string",
          "name": "_data",
          "type": "string"
        }
      ],
      "name": "create",
      "outputs": [
        {
          "internalType": "bool",
          "name": "",
          "type": "bool"
        }
      ],
      "stateMutability": "nonpayable",
      "type": "function"
    },
    {
      "inputs": [],
      "name": "read",
      "outputs": [
        {
          "internalType": "string[]",
          "name": "",
          "type": "string[]"
        }
      ],
      "stateMutability": "nonpayable",
      "type": "function"
    }
  ],
  "bytecode": "0x608060405234801561001057600080fd5b50610a94806100206000396000f3fe6080604052600436106100345760003560e01c80631c57333e1461003957806357de26a414610069578063b6a46b3b14610094575b600080fd5b610053600480360361004e91908101906106fd565b6100d1565b60405161006091906108c4565b60405180910390f35b34801561007557600080fd5b5061007e610238565b60405161008b91906108a2565b60405180910390f35b3480156100a057600080fd5b506100bb60048036036100b691908101906106bc565b6103e8565b6040516100c891906108c4565b60405180910390f35b60006706f05b59d3b2000034101561011e576040517f08c379a0000000000000000000000000000000000000000000000000000000008152600401610115906108ff565b60405180910390fd5b34600160003373ffffffffffffffffffffffffffffffffffffffff1673ffffffffffffffffffffffffffffffffffffffff16815260200190815260200160002081905550600060405180606001604052808581526020018481526020013373ffffffffffffffffffffffffffffffffffffffff1681525090806001815401808255809150506001900390600052602060002090600302016000909190919091506000820151816000015560208201518160010190805190602001906101e49291906104da565b5060408201518160020160006101000a81548173ffffffffffffffffffffffffffffffffffffffff021916908373ffffffffffffffffffffffffffffffffffffffff16021790555050506001905092915050565b60606706f05b59d3b20000600160003373ffffffffffffffffffffffffffffffffffffffff1673ffffffffffffffffffffffffffffffffffffffff1681526020019081526020016000205410156102c4576040517f08c379a00000000000000000000000000000000000000000000000000000000081526004016102bb906108df565b60405180910390fd5b600260003373ffffffffffffffffffffffffffffffffffffffff1673ffffffffffffffffffffffffffffffffffffffff168152602001908152602001600020805480602002602001604051908101604052809291908181526020016000905b828210156103df578382906000526020600020018054600181600116156101000203166002900480601f0160208091040260200160405190810160405280929190818152602001828054600181600116156101000203166002900480156103cb5780601f106103a0576101008083540402835291602001916103cb565b820191906000526020600020905b8154815290600101906020018083116103ae57829003601f168201915b505050505081526020019060010190610323565b50505050905090565b60006706f05b59d3b20000600160003373ffffffffffffffffffffffffffffffffffffffff1673ffffffffffffffffffffffffffffffffffffffff168152602001908152602001600020541015610474576040517f08c379a000000000000000000000000000000000000000000000000000000000815260040161046b906108df565b60405180910390fd5b604051806020016040528083815250600260003373ffffffffffffffffffffffffffffffffffffffff1673ffffffffffffffffffffffffffffffffffffffff1681526020019081526020016000209060016104d092919061055a565b5060019050919050565b828054600181600116156101000203166002900490600052602060002090601f016020900481019282601f1061051b57805160ff1916838001178555610549565b82800160010185558215610549579182015b8281111561054857825182559160200191906001019061052d565b5b50905061055691906105ba565b5090565b8280548282559060005260206000209081019282156105a9579160200282015b828111156105a85782518290805190602001906105989291906104da565b509160200191906001019061057a565b5b5090506105b691906105df565b5090565b6105dc91905b808211156105d85760008160009055506001016105c0565b5090565b90565b61060891905b8082111561060457600081816105fb919061060b565b506001016105e5565b5090565b90565b50805460018160011615610100020316600290046000825580601f106106315750610650565b601f01602090049060005260206000209081019061064f91906105ba565b5b50565b600082601f83011261066457600080fd5b81356106776106728261094c565b61091f565b9150808252602083016020830185838301111561069357600080fd5b61069e8382846109f4565b50505092915050565b6000813590506106b681610a47565b92915050565b6000602082840312156106ce57600080fd5b600082013567ffffffffffffffff8111156106e857600080fd5b6106f484828501610653565b91505092915050565b6000806040838503121561071057600080fd5b600061071e858286016106a7565b925050602083013567ffffffffffffffff81111561073b57600080fd5b61074785828601610653565b9150509250929050565b600061075d83836107e9565b905092915050565b600061077082610988565b61077a81856109ab565b93508360208202850161078c85610978565b8060005b858110156107c857848403895281516107a98582610751565b94506107b48361099e565b925060208a01995050600181019050610790565b50829750879550505050505092915050565b6107e3816109de565b82525050565b60006107f482610993565b6107fe81856109bc565b935061080e818560208601610a03565b61081781610a36565b840191505092915050565b600061082f6017836109cd565b91507f726567697374657220796f757273656c662066697273740000000000000000006000830152602082019050919050565b600061086f601a836109cd565b91507f596f7520446f6e2774204861766520456e6f7567682046756e640000000000006000830152602082019050919050565b600060208201905081810360008301526108bc8184610765565b905092915050565b60006020820190506108d960008301846107da565b92915050565b600060208201905081810360008301526108f881610822565b9050919050565b6000602082019050818103600083015261091881610862565b9050919050565b6000604051905081810181811067ffffffffffffffff8211171561094257600080fd5b8060405250919050565b600067ffffffffffffffff82111561096357600080fd5b601f19601f8301169050602081019050919050565b6000819050602082019050919050565b600081519050919050565b600081519050919050565b6000602082019050919050565b600082825260208201905092915050565b600082825260208201905092915050565b600082825260208201905092915050565b60008115159050919050565b6000819050919050565b82818337600083830152505050565b60005b83811015610a21578082015181840152602081019050610a06565b83811115610a30576000848401525b50505050565b6000601f19601f8301169050919050565b610a50816109ea565b8114610a5b57600080fd5b5056fea2646970667358221220049ed7cdcafdc1eefa327a0de0ff8a697005ad8f4f91d7e52e1cc2e2b644912964736f6c63430006030033",
  "source": "pragma solidity 0.6.3;\r\npragma experimental ABIEncoderV2;\r\n\r\ncontract todolist{\r\n    struct userData{\r\n        uint id;\r\n        string name;\r\n        address Address;\r\n    }\r\n\r\n    userData[] usersData;\r\n\r\n    mapping(address => uint) paymentDetails;\r\n    mapping(address => string[]) data;\r\n\r\n\r\n    //user should have 0.5 ether to open account on todolist\r\n    function registerUser(uint _id, string memory _name) public payable returns(bool){\r\n        require(msg.value >= 0.5 ether,\"You Don't Have Enough Fund\");\r\n        paymentDetails[msg.sender] = msg.value;\r\n        usersData.push(userData(_id,_name,msg.sender));\r\n        return true;\r\n    } \r\n\r\n    function create(string memory _data) public returns(bool){\r\n        require(paymentDetails[msg.sender] >= 0.5 ether,\"register yourself first\");\r\n        data[msg.sender] = [_data];\r\n        return true;\r\n    }\r\n\r\n    function read() public returns(string[] memory){\r\n        require(paymentDetails[msg.sender] >= 0.5 ether,\"register yourself first\");\r\n        return data[msg.sender];\r\n    }\r\n\r\n\r\n\r\n}",
  "sourcePath": "E:\\Blockchain-Development\\curd-dapp\\contracts\\todolist.sol",
  "compiler": {
    "name": "solc",
    "version": "0.6.3+commit.8dda9521.Emscripten.clang"
  },
  "schemaVersion": "3.0.23",
  "updatedAt": "2020-03-14T18:37:05.447Z",
  "devdoc": {
    "methods": {}
  },
  "userdoc": {
    "methods": {}
  }
}