{
  "contractName": "todolist",
  "abi": [
    {
      "inputs": [
        {
          "internalType": "uint256",
          "name": "_id",
          "type": "uint256"
        },
        {
          "internalType": "string",
          "name": "_name",
          "type": "string"
        }
      ],
      "name": "registerUser",
      "outputs": [
        {
          "internalType": "bool",
          "name": "",
          "type": "bool"
        }
      ],
      "stateMutability": "payable",
      "type": "function"
    },
    {
      "inputs": [
        {
          "internalType": "string",
          "name": "_data",
          "type": "string"
        }
      ],
      "name": "create",
      "outputs": [
        {
          "internalType": "bool",
          "name": "",
          "type": "bool"
        }
      ],
      "stateMutability": "nonpayable",
      "type": "function"
    },
    {
      "inputs": [],
      "name": "read",
      "outputs": [
        {
          "internalType": "string[]",
          "name": "",
          "type": "string[]"
        }
      ],
      "stateMutability": "view",
      "type": "function"
    }
  ],
  "bytecode": "0x608060405234801561001057600080fd5b506109ea806100206000396000f3fe6080604052600436106100345760003560e01c80631c57333e1461003957806357de26a414610069578063b6a46b3b14610094575b600080fd5b610053600480360361004e919081019061062d565b6100d1565b604051610060919061081a565b60405180910390f35b34801561007557600080fd5b5061007e610238565b60405161008b91906107f8565b60405180910390f35b3480156100a057600080fd5b506100bb60048036036100b691908101906105ec565b6103f4565b6040516100c8919061081a565b60405180910390f35b60006706f05b59d3b2000034101561011e576040517f08c379a000000000000000000000000000000000000000000000000000000000815260040161011590610855565b60405180910390fd5b34600260003373ffffffffffffffffffffffffffffffffffffffff1673ffffffffffffffffffffffffffffffffffffffff16815260200190815260200160002081905550600160405180606001604052808581526020018481526020013373ffffffffffffffffffffffffffffffffffffffff1681525090806001815401808255809150506001900390600052602060002090600302016000909190919091506000820151816000015560208201518160010190805190602001906101e49291906104de565b5060408201518160020160006101000a81548173ffffffffffffffffffffffffffffffffffffffff021916908373ffffffffffffffffffffffffffffffffffffffff16021790555050506001905092915050565b60606706f05b59d3b20000600260003373ffffffffffffffffffffffffffffffffffffffff1673ffffffffffffffffffffffffffffffffffffffff1681526020019081526020016000205410156102c4576040517f08c379a00000000000000000000000000000000000000000000000000000000081526004016102bb90610835565b60405180910390fd5b60606000805490506040519080825280602002602001820160405280156102ff57816020015b60608152602001906001900390816102ea5790505b50905060008090505b6000805490508110156103ec576000818154811061032257fe5b906000526020600020016000018054600181600116156101000203166002900480601f0160208091040260200160405190810160405280929190818152602001828054600181600116156101000203166002900480156103c35780601f10610398576101008083540402835291602001916103c3565b820191906000526020600020905b8154815290600101906020018083116103a657829003601f168201915b50505050508282815181106103d457fe5b60200260200101819052508080600101915050610308565b508091505090565b60006706f05b59d3b20000600260003373ffffffffffffffffffffffffffffffffffffffff1673ffffffffffffffffffffffffffffffffffffffff168152602001908152602001600020541015610480576040517f08c379a000000000000000000000000000000000000000000000000000000000815260040161047790610835565b60405180910390fd5b60006040518060200160405280848152509080600181540180825580915050600190039060005260206000200160009091909190915060008201518160000190805190602001906104d29291906104de565b50505060019050919050565b828054600181600116156101000203166002900490600052602060002090601f016020900481019282601f1061051f57805160ff191683800117855561054d565b8280016001018555821561054d579182015b8281111561054c578251825591602001919060010190610531565b5b50905061055a919061055e565b5090565b61058091905b8082111561057c576000816000905550600101610564565b5090565b90565b600082601f83011261059457600080fd5b81356105a76105a2826108a2565b610875565b915080825260208301602083018583830111156105c357600080fd5b6105ce83828461094a565b50505092915050565b6000813590506105e68161099d565b92915050565b6000602082840312156105fe57600080fd5b600082013567ffffffffffffffff81111561061857600080fd5b61062484828501610583565b91505092915050565b6000806040838503121561064057600080fd5b600061064e858286016105d7565b925050602083013567ffffffffffffffff81111561066b57600080fd5b61067785828601610583565b9150509250929050565b600061068d8383610719565b905092915050565b60006106a0826108de565b6106aa8185610901565b9350836020820285016106bc856108ce565b8060005b858110156106f857848403895281516106d98582610681565b94506106e4836108f4565b925060208a019950506001810190506106c0565b50829750879550505050505092915050565b61071381610934565b82525050565b6000610724826108e9565b61072e8185610912565b935061073e818560208601610959565b6107478161098c565b840191505092915050565b600061075f601783610923565b91507f726567697374657220796f757273656c662066697273740000000000000000006000830152602082019050919050565b600061079f602483610923565b91507f596f752073686f756c642068617665206d696e696d756e206f6620302e35206560008301527f74686572000000000000000000000000000000000000000000000000000000006020830152604082019050919050565b600060208201905081810360008301526108128184610695565b905092915050565b600060208201905061082f600083018461070a565b92915050565b6000602082019050818103600083015261084e81610752565b9050919050565b6000602082019050818103600083015261086e81610792565b9050919050565b6000604051905081810181811067ffffffffffffffff8211171561089857600080fd5b8060405250919050565b600067ffffffffffffffff8211156108b957600080fd5b601f19601f8301169050602081019050919050565b6000819050602082019050919050565b600081519050919050565b600081519050919050565b6000602082019050919050565b600082825260208201905092915050565b600082825260208201905092915050565b600082825260208201905092915050565b60008115159050919050565b6000819050919050565b82818337600083830152505050565b60005b8381101561097757808201518184015260208101905061095c565b83811115610986576000848401525b50505050565b6000601f19601f8301169050919050565b6109a681610940565b81146109b157600080fd5b5056fea264697066735822122097060ef17c6dd2a24167a4881b780b6f04e61f6c11ae3e3a3c0fe24d17c81eb764736f6c63430006030033",
  "source": "pragma solidity 0.6.3;\r\npragma experimental ABIEncoderV2;\r\n\r\ncontract todolist{\r\n    struct userData{\r\n        uint id;\r\n        string name;\r\n        address Address;\r\n    }\r\n    struct tasks{\r\n        string value;\r\n    }\r\n    tasks[] task;\r\n    userData[] usersData;\r\n\r\n\r\n    mapping(address => uint) paymentDetails;\r\n    //mapping(address => string[]) data;\r\n\r\n\r\n    //user should have 0.5 ether to open account on todolist\r\n    function registerUser(uint _id, string memory _name) public payable returns(bool){\r\n        require(msg.value >= 0.5 ether,\"You should have minimun of 0.5 ether\");\r\n        paymentDetails[msg.sender] = msg.value;\r\n        usersData.push(userData(_id,_name,msg.sender));\r\n        return true;\r\n    }\r\n\r\n    function create(string memory _data) public returns(bool){\r\n        require(paymentDetails[msg.sender] >= 0.5 ether,\"register yourself first\");\r\n        task.push(tasks(_data));\r\n        return true;\r\n    }\r\n\r\n    function read() public view returns(string[] memory){\r\n        require(paymentDetails[msg.sender] >= 0.5 ether,\"register yourself first\");\r\n\r\n        string[] memory item = new string[](task.length);\r\n        for(uint i=0; i<task.length; i++){\r\n            item[i] = task[i].value;\r\n        }\r\n        return item;\r\n    }\r\n\r\n    // function delete() public returns(bool){\r\n    //     require(paymentDetails[msg.sender] >= 0.5 ether,\"register yourself first\");\r\n    // }\r\n\r\n\r\n\r\n}",
  "sourcePath": "E:\\Blockchain-Development\\curd-dapp\\contracts\\todolist.sol",
  "compiler": {
    "name": "solc",
    "version": "0.6.3+commit.8dda9521.Emscripten.clang"
  },
  "schemaVersion": "3.0.23",
  "updatedAt": "2020-03-14T20:09:28.260Z",
  "devdoc": {
    "methods": {}
  },
  "userdoc": {
    "methods": {}
  }
}