{
  "contractName": "todolist",
  "abi": [
    {
      "constant": true,
      "inputs": [
        {
          "name": "",
          "type": "address"
        }
      ],
      "name": "paymentDetails",
      "outputs": [
        {
          "name": "",
          "type": "uint256"
        }
      ],
      "payable": false,
      "stateMutability": "view",
      "type": "function"
    },
    {
      "constant": true,
      "inputs": [
        {
          "name": "",
          "type": "address"
        }
      ],
      "name": "finalData",
      "outputs": [
        {
          "name": "id",
          "type": "uint256"
        },
        {
          "name": "name",
          "type": "string"
        },
        {
          "name": "Address",
          "type": "address"
        }
      ],
      "payable": false,
      "stateMutability": "view",
      "type": "function"
    },
    {
      "anonymous": false,
      "inputs": [
        {
          "indexed": false,
          "name": "",
          "type": "uint256"
        },
        {
          "indexed": false,
          "name": "",
          "type": "string"
        },
        {
          "indexed": false,
          "name": "",
          "type": "address"
        }
      ],
      "name": "user",
      "type": "event"
    },
    {
      "anonymous": false,
      "inputs": [
        {
          "indexed": false,
          "name": "",
          "type": "uint256"
        },
        {
          "indexed": false,
          "name": "",
          "type": "string"
        },
        {
          "indexed": false,
          "name": "",
          "type": "address"
        },
        {
          "indexed": false,
          "name": "",
          "type": "string"
        }
      ],
      "name": "addedTask",
      "type": "event"
    },
    {
      "constant": false,
      "inputs": [
        {
          "name": "_name",
          "type": "string"
        }
      ],
      "name": "registerUser",
      "outputs": [
        {
          "name": "",
          "type": "bool"
        }
      ],
      "payable": true,
      "stateMutability": "payable",
      "type": "function"
    },
    {
      "constant": false,
      "inputs": [
        {
          "name": "_data",
          "type": "string"
        }
      ],
      "name": "create",
      "outputs": [
        {
          "name": "",
          "type": "bool"
        }
      ],
      "payable": false,
      "stateMutability": "nonpayable",
      "type": "function"
    },
    {
      "constant": true,
      "inputs": [],
      "name": "read",
      "outputs": [
        {
          "name": "",
          "type": "string[]"
        }
      ],
      "payable": false,
      "stateMutability": "view",
      "type": "function"
    },
    {
      "constant": false,
      "inputs": [
        {
          "name": "_index",
          "type": "uint256"
        }
      ],
      "name": "deleteItem",
      "outputs": [
        {
          "name": "",
          "type": "bool"
        }
      ],
      "payable": false,
      "stateMutability": "nonpayable",
      "type": "function"
    }
  ],
  "bytecode": "0x608060405234801561001057600080fd5b50611377806100206000396000f3fe6080604052600436106100555760003560e01c806357de26a41461005a578063654fc83314610085578063704f1b94146100c257806388c49637146100f2578063b6a46b3b1461012f578063e6379d7b1461016c575b600080fd5b34801561006657600080fd5b5061006f6101ab565b60405161007c9190610fef565b60405180910390f35b34801561009157600080fd5b506100ac60048036036100a79190810190610d21565b610367565b6040516100b99190611011565b60405180910390f35b6100dc60048036036100d79190810190610ce0565b6104d8565b6040516100e99190611011565b60405180910390f35b3480156100fe57600080fd5b5061011960048036036101149190810190610cb7565b6106e1565b604051610126919061106c565b60405180910390f35b34801561013b57600080fd5b5061015660048036036101519190810190610ce0565b6106f9565b6040516101639190611011565b60405180910390f35b34801561017857600080fd5b50610193600480360361018e9190810190610cb7565b610908565b6040516101a2939291906110c5565b60405180910390f35b60606706f05b59d3b20000600360003373ffffffffffffffffffffffffffffffffffffffff1673ffffffffffffffffffffffffffffffffffffffff168152602001908152602001600020541015610237576040517f08c379a000000000000000000000000000000000000000000000000000000000815260040161022e9061102c565b60405180910390fd5b606060018054905060405190808252806020026020018201604052801561027257816020015b606081526020019060019003908161025d5790505b50905060008090505b60018054905081101561035f576001818154811061029557fe5b906000526020600020016000018054600181600116156101000203166002900480601f0160208091040260200160405190810160405280929190818152602001828054600181600116156101000203166002900480156103365780601f1061030b57610100808354040283529160200191610336565b820191906000526020600020905b81548152906001019060200180831161031957829003601f168201915b505050505082828151811061034757fe5b6020026020010181905250808060010191505061027b565b508091505090565b60006706f05b59d3b20000600360003373ffffffffffffffffffffffffffffffffffffffff1673ffffffffffffffffffffffffffffffffffffffff1681526020019081526020016000205410156103f3576040517f08c379a00000000000000000000000000000000000000000000000000000000081526004016103ea9061102c565b60405180910390fd5b600180549050821061040857600090506104d3565b60008290505b60018080549050038110156104855760018082018154811061042c57fe5b906000526020600020016001828154811061044357fe5b90600052602060002001600082018160000190805460018160011615610100020316600290046104749291906109ea565b50905050808060010191505061040e565b506001808080549050038154811061049957fe5b90600052602060002001600080820160006104b49190610a71565b5050600180818180549050039150816104cd9190610ab9565b50600190505b919050565b60006706f05b59d3b20000341015610525576040517f08c379a000000000000000000000000000000000000000000000000000000000815260040161051c9061104c565b60405180910390fd5b600080815480929190600101919050555034600360003373ffffffffffffffffffffffffffffffffffffffff1673ffffffffffffffffffffffffffffffffffffffff16815260200190815260200160002081905550600054600260003373ffffffffffffffffffffffffffffffffffffffff1673ffffffffffffffffffffffffffffffffffffffff1681526020019081526020016000206000018190555081600260003373ffffffffffffffffffffffffffffffffffffffff1673ffffffffffffffffffffffffffffffffffffffff1681526020019081526020016000206001019080519060200190610619929190610ae5565b5033600260003373ffffffffffffffffffffffffffffffffffffffff1673ffffffffffffffffffffffffffffffffffffffff16815260200190815260200160002060020160006101000a81548173ffffffffffffffffffffffffffffffffffffffff021916908373ffffffffffffffffffffffffffffffffffffffff1602179055507fd8fd19d9aaa6a22f3a612d5dcf84b531af2b3019b54be27b9530dca9b9d7de8560005483336040516106d093929190611087565b60405180910390a160019050919050565b60036020528060005260406000206000915090505481565b60006706f05b59d3b20000600360003373ffffffffffffffffffffffffffffffffffffffff1673ffffffffffffffffffffffffffffffffffffffff168152602001908152602001600020541015610785576040517f08c379a000000000000000000000000000000000000000000000000000000000815260040161077c9061102c565b60405180910390fd5b600160405180602001604052808481525090806001815401808255809150509060018203906000526020600020016000909192909190915060008201518160000190805190602001906107d9929190610b65565b505050507f50050ede172ac577d8025e358f4ca4d4aa0e0b1d39e22f105b0504f28610e084600260003373ffffffffffffffffffffffffffffffffffffffff1673ffffffffffffffffffffffffffffffffffffffff16815260200190815260200160002060000154600260003373ffffffffffffffffffffffffffffffffffffffff1673ffffffffffffffffffffffffffffffffffffffff168152602001908152602001600020600101600260003373ffffffffffffffffffffffffffffffffffffffff1673ffffffffffffffffffffffffffffffffffffffff16815260200190815260200160002060020160009054906101000a900473ffffffffffffffffffffffffffffffffffffffff16856040516108f79493929190611103565b60405180910390a160019050919050565b6002602052806000526040600020600091509050806000015490806001018054600181600116156101000203166002900480601f0160208091040260200160405190810160405280929190818152602001828054600181600116156101000203166002900480156109ba5780601f1061098f576101008083540402835291602001916109ba565b820191906000526020600020905b81548152906001019060200180831161099d57829003601f168201915b5050505050908060020160009054906101000a900473ffffffffffffffffffffffffffffffffffffffff16905083565b828054600181600116156101000203166002900490600052602060002090601f016020900481019282601f10610a235780548555610a60565b82800160010185558215610a6057600052602060002091601f016020900482015b82811115610a5f578254825591600101919060010190610a44565b5b509050610a6d9190610be5565b5090565b50805460018160011615610100020316600290046000825580601f10610a975750610ab6565b601f016020900490600052602060002090810190610ab59190610be5565b5b50565b815481835581811115610ae057818360005260206000209182019101610adf9190610c0a565b5b505050565b828054600181600116156101000203166002900490600052602060002090601f016020900481019282601f10610b2657805160ff1916838001178555610b54565b82800160010185558215610b54579182015b82811115610b53578251825591602001919060010190610b38565b5b509050610b619190610be5565b5090565b828054600181600116156101000203166002900490600052602060002090601f016020900481019282601f10610ba657805160ff1916838001178555610bd4565b82800160010185558215610bd4579182015b82811115610bd3578251825591602001919060010190610bb8565b5b509050610be19190610be5565b5090565b610c0791905b80821115610c03576000816000905550600101610beb565b5090565b90565b610c3691905b80821115610c325760008082016000610c299190610a71565b50600101610c10565b5090565b90565b600081359050610c4881611306565b92915050565b600082601f830112610c5f57600080fd5b8135610c72610c6d82611183565b611156565b91508082526020830160208301858383011115610c8e57600080fd5b610c998382846112b3565b50505092915050565b600081359050610cb18161131d565b92915050565b600060208284031215610cc957600080fd5b6000610cd784828501610c39565b91505092915050565b600060208284031215610cf257600080fd5b600082013567ffffffffffffffff811115610d0c57600080fd5b610d1884828501610c4e565b91505092915050565b600060208284031215610d3357600080fd5b6000610d4184828501610ca2565b91505092915050565b6000610d568383610e39565b905092915050565b610d678161127d565b82525050565b610d7681611235565b82525050565b6000610d87826111d4565b610d918185611202565b935083602082028501610da3856111af565b8060005b85811015610ddf5784840389528151610dc08582610d4a565b9450610dcb836111f5565b925060208a01995050600181019050610da7565b50829750879550505050505092915050565b610dfa81611247565b82525050565b6000610e0b826111ea565b610e158185611224565b9350610e258185602086016112c2565b610e2e816112f5565b840191505092915050565b6000610e44826111df565b610e4e8185611213565b9350610e5e8185602086016112c2565b610e67816112f5565b840191505092915050565b6000610e7d826111df565b610e878185611224565b9350610e978185602086016112c2565b610ea0816112f5565b840191505092915050565b600081546001811660008114610ec85760018114610eee57610f32565b607f6002830416610ed98187611224565b955060ff198316865260208601935050610f32565b60028204610efc8187611224565b9550610f07856111bf565b60005b82811015610f2957815481890152600182019150602081019050610f0a565b80880195505050505b505092915050565b6000610f47601783611224565b91507f726567697374657220796f757273656c662066697273740000000000000000006000830152602082019050919050565b6000610f87602483611224565b91507f596f752073686f756c642068617665206d696e696d756e206f6620302e35206560008301527f74686572000000000000000000000000000000000000000000000000000000006020830152604082019050919050565b610fe981611273565b82525050565b600060208201905081810360008301526110098184610d7c565b905092915050565b60006020820190506110266000830184610df1565b92915050565b6000602082019050818103600083015261104581610f3a565b9050919050565b6000602082019050818103600083015261106581610f7a565b9050919050565b60006020820190506110816000830184610fe0565b92915050565b600060608201905061109c6000830186610fe0565b81810360208301526110ae8185610e00565b90506110bd6040830184610d5e565b949350505050565b60006060820190506110da6000830186610fe0565b81810360208301526110ec8185610e72565b90506110fb6040830184610d6d565b949350505050565b60006080820190506111186000830187610fe0565b818103602083015261112a8186610eab565b90506111396040830185610d6d565b818103606083015261114b8184610e00565b905095945050505050565b6000604051905081810181811067ffffffffffffffff8211171561117957600080fd5b8060405250919050565b600067ffffffffffffffff82111561119a57600080fd5b601f19601f8301169050602081019050919050565b6000819050602082019050919050565b60008190508160005260206000209050919050565b600081519050919050565b600081519050919050565b600081519050919050565b6000602082019050919050565b600082825260208201905092915050565b600082825260208201905092915050565b600082825260208201905092915050565b600061124082611253565b9050919050565b60008115159050919050565b600073ffffffffffffffffffffffffffffffffffffffff82169050919050565b6000819050919050565b60006112888261128f565b9050919050565b600061129a826112a1565b9050919050565b60006112ac82611253565b9050919050565b82818337600083830152505050565b60005b838110156112e05780820151818401526020810190506112c5565b838111156112ef576000848401525b50505050565b6000601f19601f8301169050919050565b61130f81611235565b811461131a57600080fd5b50565b61132681611273565b811461133157600080fd5b5056fea365627a7a723058204d3de305df0fa59bd99b34c190106996698ce12398aa71b9a30a868e0cb9e93a6c6578706572696d656e74616cf564736f6c63430005090040",
  "source": "pragma solidity 0.5.9;\r\npragma experimental ABIEncoderV2;\r\n\r\ncontract todolist{\r\n    uint ranId;\r\n    struct userData{\r\n        uint id;\r\n        string name;\r\n        address Address;\r\n    }\r\n    struct tasks{\r\n        string value;\r\n    }\r\n    tasks[]  task;\r\n    //userData[] public usersData;\r\n\r\n    mapping(address => userData) public finalData;\r\n    mapping(address => uint) public paymentDetails;\r\n    \r\n    event user(uint,string,address);\r\n    event addedTask(uint,string,address,string);\r\n\r\n    //user should have 0.5 ether to open account on todolist\r\n    function registerUser(string memory _name) public payable returns(bool){\r\n        require(msg.value >= 0.5 ether,\"You should have minimun of 0.5 ether\");\r\n        ranId++;\r\n        paymentDetails[msg.sender] = msg.value;\r\n        //usersData.push(userData(ranId,_name,msg.sender));\r\n        finalData[msg.sender].id = ranId;\r\n        finalData[msg.sender].name = _name;\r\n        finalData[msg.sender].Address = msg.sender; \r\n        emit user(ranId,_name,msg.sender);\r\n        return true;\r\n    }\r\n\r\n    function create(string memory _data) public returns(bool){\r\n        require(paymentDetails[msg.sender] >= 0.5 ether,\"register yourself first\");\r\n        task.push(tasks(_data));\r\n        emit addedTask(finalData[msg.sender].id,finalData[msg.sender].name,finalData[msg.sender].Address,_data);\r\n        return true;\r\n    }\r\n\r\n    function read() public view returns(string[] memory){\r\n        require(paymentDetails[msg.sender] >= 0.5 ether,\"register yourself first\");\r\n\r\n        string[] memory item = new string[](task.length);\r\n        for(uint i=0; i<task.length; i++){\r\n            item[i] = task[i].value;\r\n        }\r\n        return item;\r\n    }\r\n\r\n    function deleteItem(uint _index) public returns(bool){\r\n        require(paymentDetails[msg.sender] >= 0.5 ether,\"register yourself first\");\r\n        if(_index >= task.length) return false;\r\n\r\n        for(uint i=_index; i<task.length -1; i++){\r\n            task[i] = task[i+1];\r\n        }\r\n        delete task[task.length-1];\r\n        task.length -= 1;\r\n        return true;\r\n\r\n    }\r\n\r\n\r\n\r\n}",
  "sourcePath": "E:\\Blockchain-Development\\curd-dapp\\contracts\\todolist.sol",
  "compiler": {
    "name": "solc",
    "version": "0.5.9+commit.e560f70d.Emscripten.clang"
  },
  "schemaVersion": "3.0.23",
  "updatedAt": "2020-03-16T21:03:30.264Z",
  "networkType": "ethereum",
  "devdoc": {
    "methods": {}
  },
  "userdoc": {
    "methods": {}
  }
}